:020000040800F2
:1000000070070020890100085D0500082905000827
:100010002D050008430200083F1200080000000000
:10002000000000000000000000000000550800086B
:100030004702000800000000D1050008410900083F
:10004000A3010008A3010008A3010008A301000800
:10005000A3010008A3010008A3010008A3010008F0
:10006000A3010008A3010008A3010008A3010008E0
:10007000A3010008A3010008A3010008A3010008D0
:10008000A3010008A3010008A3010008A3010008C0
:10009000A3010008A3010008A30100084902000809
:1000A000A3010008A3010008A3010008A3010008A0
:1000B000A3010008A3010008A5090008A301000886
:1000C000A3010008A3010008A3010008A301000880
:1000D000A30100080D0F0008A3010008A3010008F8
:1000E000A3010008A3010008A301000800F002F822
:1000F00000F03AF80AA090E8000C82448344AAF188
:100100000107DA4501D100F02FF8AFF2090EBAE885
:100110000F0013F0010F18BFFB1A43F0010318473B
:10012000F012000010130000103A24BF78C878C104
:10013000FAD8520724BF30C830C144BF04680C60ED
:10014000704700000023002400250026103A28BF35
:1001500078C1FBD8520728BF30C148BF0B60704739
:100160001FB51FBD10B510BD00F031F81146FFF7E7
:10017000F7FF01F0FFF800F04FF803B4FFF7F2FFCC
:1001800003BC00F057F800000948804709480047C1
:10019000FEE7FEE7FEE7FEE7FEE7FEE7FEE7FEE737
:1001A000FEE7FEE704480549054A064B7047000094
:1001B00045090008ED0000087001002070070020CC
:1001C0007003002070030020704770477047754629
:1001D00000F02CF8AE4605006946534620F00700B3
:1001E000854618B020B5FFF7DDFFBDE820404FF091
:1001F00000064FF000074FF000084FF0000B21F011
:100200000701AC46ACE8C009ACE8C009ACE8C009DD
:10021000ACE8C0098D46704710B50446AFF30080C6
:100220002046BDE81040FFF7A8BF00000048704717
:100230001001002001491820ABBEFEE72600020095
:10024000704700BFFEE7704770472DE9F041024656
:1002500000250026002000230024002791F803C079
:100260000CF00F0591F803C00CF0100CBCF1000F5E
:1002700003D091F802C04CEA050591F800C0BCF12A
:10028000000F31D0146800202BE04FF0010C0CFA65
:1002900000F3B1F800C00CEA03069E4220D18300AF
:1002A0004FF00F0C0CFA03F7BC4305FA03FC4CEAC1
:1002B000040491F803C0BCF1280F06D14FF0010CE3
:1002C0000CFA00FCC2F814C00AE091F803C0BCF1BB
:1002D000480F05D14FF0010C0CFA00FCC2F810C019
:1002E000401C0828D1D31460B1F800C0BCF1FF0F46
:1002F00034DD546800202EE000F1080C4FF00108B6
:1003000008FA0CF3B1F800C00CEA03069E4221D1B2
:1003100083004FF00F0C0CFA03F7BC4305FA03FC03
:100320004CEA040491F803C0BCF1280F05D100F198
:10033000080C08FA0CF8C2F8148091F803C0BCF15C
:10034000480F07D100F1080C4FF0010808FA0CF82B
:10035000C2F81080401C0828CED35460BDE8F0815C
:10036000F0B50A46002300240021002500F00046D5
:10037000B6F1004F02D11D4EF16901E01B4E7168CC
:10038000C0F3034583B200F44016B6F5401F08D110
:1003900021F07061154E766826F07066134F7E600E
:1003A00012E000F48016B6F5801F06D1032606FA87
:1003B00005F4A14341F0706106E0460D360103FAF1
:1003C00006F6B14341F0706122B1460D360103FAE1
:1003D00006F6314300F00046B6F1004F02D1034E5D
:1003E000F16101E0014E7160F0BD000000000140CC
:1003F0000AB1016100E041617047000010B588B0AA
:1004000004460121C80200F005F9ADF818402F207C
:10041000ADF814000020ADF81A00ADF8160005A9DB
:100420001D4800F00DFD6020ADF804000120ADF87E
:10043000060040F2DC50ADF80A000020ADF80C00D8
:100440004FF48070ADF8100001A9134800F04CFC87
:1004500040F2DC50ADF80A000020ADF80C004FF47B
:100460008070ADF8100001A90B4800F097FC012046
:1004700000F046F80821084800F086FC08210648EC
:1004800000F0CAFC0121044800F0F6FA01210248FC
:1004900000F001FB08B010BD002C014008B501219F
:1004A000052000F0B7F84FF44060ADF800001820C8
:1004B0008DF8030003208DF8020069460148FFF71C
:1004C000C4FE08BD0008014010B50446FFF7E6FF72
:1004D0002046FFF793FF10BD70B504460D46032D6F
:1004E00004D1A1B2054800F0A4FC05E0042D03D11D
:1004F000A1B2024800F09FFC70BD0000002C01403A
:1005000010B5044644B90021064800F097FC0121CB
:10051000044800F0CCFA03E00021024800F0C7FADA
:1005200010BD0000002C014000BFFEE700BFFEE749
:1005300008B50121082000F06DF810208DF80300A7
:1005400003208DF802004FF40040ADF8000069462A
:100550000148FFF77AFE08BD000C0140704700001B
:1005600070B5002100230F22C47804B3154C246811
:1005700004F4E064C4F5E064210AC1F10403CA4054
:10058000447804FA03F184781440214309010E4CA5
:100590000678A155047804F01F050124AC400578C5
:1005A0006D11AD0005F1E025C5F8004109E00478C2
:1005B00004F01F050124AC40044D0678761145F87F
:1005C000264070BD0CED00E000E400E080E100E0BA
:1005D0007047000029B1064AD2690243044BDA6130
:1005E00004E0034AD2698243014BDA61704700009C
:1005F0000010024029B1064A12690243044B1A61F5
:1006000004E0034A12698243014B1A6170470000FB
:100610000010024029B1064A92690243044B9A61D4
:1006200004E0034A92698243014B9A6170470000DB
:100630000010024029B1064AD2680243044BDA6036
:1006400004E0034AD2688243014BDA60704700003D
:10065000001002400F48006840F001000D4908609A
:10066000084640680C4908400A4948600846006846
:100670000A490840074908600846006820F48020BD
:1006800008600846406820F4FE0048604FF41F00F0
:1006900088607047001002400000FFF8FFFFF6FE80
:1006A00030B500210022002400232D4D6D6805F097
:1006B0000C0121B1042905D0082923D105E0294DD9
:1006C000056022E0274D05601FE0254D6D6805F4AB
:1006D0007012234D6D6805F48034022505EB9242BB
:1006E0001CB9214D554305600BE01D4D6D6805F4A7
:1006F00000351DB11C4D5543056002E0194D5543B1
:10070000056002E0174D056000BF00BF144D6D6825
:1007100005F0F0010909154D6B5C0568DD40456089
:100720000F4D6D6805F4E061090A104D6B5C45687A
:10073000DD4085600A4D6D6805F46051C90A0B4DB6
:100740006B5C4568DD40C560054D6D6805F4404152
:10075000890B074D6B5CC568B5FBF3F5056130BDD2
:100760000010024000127A0000093D002000002025
:100770003000002010B501460022002300204A115D
:10078000012A02D1094C236806E0022A02D1074C53
:10079000236A01E0054C636A01F01F0201249440C2
:1007A0001C400CB1012000E0002010BD00100240F0
:1007B0000248406800F00C00704700000010024042
:1007C00001460020034A506820F0F00008435060C2
:1007D00070470000001002400149086070470000A7
:1007E0000000424201460020034A506820F4E060C5
:1007F000084350607047000000100240014600208E
:10080000034A506820F4605040EAC10050607047CD
:100810000010024001490866704700000000424293
:1008200002460020044B586820F47C1042EA010381
:100830001843014B586070470010024001460020E9
:10084000034A506820F003000843506070470000DE
:1008500000100240704710B500F002F810BD000013
:100860000CB50020019000903348006840F48030BF
:100870003149086000BF3048006800F40030009043
:100880000198401C0190009818B90198B0F5A06F2C
:10089000F1D12948006800F4003010B10120009027
:1008A00001E0002000900098012843D1234800680F
:1008B00040F01000214908600846006820F003005D
:1008C00008600846006840F0020008601A48406866
:1008D000194948600846406848600846406840F446
:1008E000806048600846406820F47C1048600846F4
:1008F000406840F4E81048600846006840F08070A6
:10090000086000BF0C48006800F000700028F9D0B3
:100910000948406820F003000749486008464068DD
:1009200040F00200486000BF0348406800F00C003F
:100930000828F9D10CBD0000001002400020024040
:100940007047000010B51348006840F001001149DD
:10095000086008464068104908400E49486008464B
:1009600000680E4908400B4908600846006820F4FA
:10097000802008600846406820F4FE0048604FF47C
:100980001F008860FFF767FF4FF0006004490860B0
:1009900010BD0000001002400000FFF8FFFFF6FE4F
:1009A00008ED00E010B50121144800F083F918B3F8
:1009B0000121124800F06CF811480068401C1049F1
:1009C0000860084600684FF4FA71B0FBF1F201FBD1
:1009D000120028B900200A4908600120094908705E
:1009E00009480078012802D100F086FA04E00648A0
:1009F000007808B900F076FA10BD00000008004049
:100A0000080000200C000020170000201FB5194826
:100A100000F05CF801210420FFF7DCFD4FF47A7050
:100A2000ADF808002F20ADF804000020ADF80A0052
:100A3000ADF8060001A90F4800F002FA01210D48A7
:100A400000F01AF8012211460A4800F044F9012189
:100A5000084800F020F81E208DF8000064208DF872
:100A600001008DF8020001208DF803006846FFF7B1
:100A700077FD1FBD0008004021B1028842F08002CE
:100A8000028004E002884FF67F731A4002807047AC
:100A9000CA430282704721B1028842F001020280FB
:100AA00004E002884FF6FE731A400280704731B1AD
:100AB000B0F8442042F40042A0F8442005E0B0F829
:100AC0004420C2F30E02A0F84420704710B504463B
:100AD0006848844208D10121C014FFF7ABFD002112
:100AE000E014FFF7A7FDC4E0B4F1804F08D1012165
:100AF0000846FFF77FFD00210120FFF77BFDB8E0EE
:100B00005D48844208D101210220FFF773FD0021D6
:100B10000220FFF76FFDACE05848844208D1012164
:100B20000420FFF767FD00210420FFF763FDA0E02C
:100B30005348844208D101210820FFF75BFD0021C2
:100B40000820FFF757FD94E04E48844208D1012168
:100B50001020FFF74FFD00211020FFF74BFD88E02C
:100B60004948844208D101212020FFF743FD00219C
:100B70002020FFF73FFD7CE04448844208D101215A
:100B80004014FFF757FD00216014FFF753FD70E09C
:100B90003F48844209D10121C804FFF74BFD0021E1
:100BA0004FF40020FFF746FD63E03A48844209D144
:100BB00001210805FFF73EFD00214FF48010FFF7EB
:100BC00039FD56E03448844209D101214805FFF738
:100BD00031FD00214FF40010FFF72CFD49E02F48B4
:100BE000844208D101214020FFF704FD002140206C
:100BF000FFF700FD3DE02A48844208D10121802012
:100C0000FFF7F8FC00218020FFF7F4FC31E02548D5
:100C1000844208D101218015FFF7ECFC0021A015CA
:100C2000FFF7E8FC25E02048844209D101210804AF
:100C3000FFF700FD00214FF48030FFF7FBFC18E0C8
:100C40001A48844209D101214804FFF7F3FC00212E
:100C50004FF40030FFF7EEFC0BE01548844208D15A
:100C600001218804FFF7E6FC00214FF48020FFF704
:100C7000E1FC10BD002C01400004004000080040D1
:100C8000000C0040001000400014004000340140FF
:100C9000004C014000500140005401400018004049
:100CA000001C004000200040004001400044014082
:100CB0000048014030B50246002000230024158A78
:100CC00005EA0103958905EA010413B10CB101207D
:100CD00000E0002030BD1AB183890B43838102E01C
:100CE00083898B438381704770B5002400220023E1
:100CF000058C4FF6FF6635400584028C8388848B13
:100D00004FF68F752C404FF6FC752C400D882C4308
:100D10004FF6FF552A400D894FF6FF7606EA052566
:100D20002A434D8806EA05252A43154DA84202D0DC
:100D3000144DA8421DD14FF2FF752A404D894FF640
:100D4000FF7606EA05252A434FF6FF352A408D88AF
:100D500006EA05252A434EF6FF752B404DF6FF7532
:100D60002B408D8906EA05152B43CD8906EA05152A
:100D70002B4383808483CD888587028470BD0000E7
:100D8000002C0140003401400A460021818B4FF6BF
:100D9000F7731940114381837047000070B500223A
:100DA00000230024058C4EF6FF7635400584038C25
:100DB0008488828B48F6FF752A404FF6FF452A400B
:100DC0000D884FF6FF7606EA05252A434DF6FF7596
:100DD0002B400D8906EA05352B434D8806EA05357B
:100DE0002B430B4DA84202D00A4DA84208D14BF626
:100DF000FF752C408D894FF6FF7606EA85152C434A
:100E000084808283CD88A0F84050038470BD0000A8
:100E1000002C0140003401400A460021818B4FF232
:100E2000FF7319404FF6FF7303EA022319438183CE
:100E3000704781877047A0F84010704781847047E1
:100E4000002202881D4B98420ED01D4B98420BD0B9
:100E5000B0F1804F08D01B4B984205D01A4B9842F6
:100E600002D01A4B984204D14FF68F731A404B8828
:100E70001A43174B984207D0164B984204D04FF6AE
:100E8000FF431A40CB881A4302808B8883850B88E6
:100E900003850A4B98420BD0094B984208D00E4B61
:100EA000984205D00D4B984202D00D4B984201D18B
:100EB0000B7A03860123838270470000002C0140D7
:100EC000003401400004004000080040000C0040D5
:100ED0000010004000140040004001400044014068
:100EE0000048014010B50122D1030248FFF780FA03
:100EF00010BD0000000C014010B500224FF400416D
:100F00000148FFF775FA10BD000C014010B540F222
:100F10002551284800F0CFF800284AD0254800F095
:100F200085F9C4B224480088401C00B222490880D8
:100F30002248007802281AD1214801880088401CE4
:100F40001F4A10801F484454104600880B2830DB8D
:100F50001D480088401C00B21B49088001201B4925
:100F600008700020154908701146088021E0A52C62
:100F70000ED11248007858B9012010490870104865
:100F800001880088401C0E4A10800E48445410E02E
:100F9000852C0ED10948007801280AD10220074982
:100FA0000870074801880088401C054A10800548E1
:100FB000445410BD003801401C0000201A000020DD
:100FC00018000020480000201E0000201B00002008
:100FD00021B1828942F40052828104E082894DF677
:100FE000FF731A408281704700B587B00121082045
:100FF000FFF710FB01218803FFF70CFB01210846D6
:10100000FFF708FB01210420FFF7AAF94020ADF803
:10101000180018208DF81B0003208DF81A0006A96F
:101020001C48FFF712F98020ADF8180004208DF855
:101030001B0006A91748FFF708F925208DF80400C2
:1010400003208DF805008DF8060001208DF80700BB
:1010500001A8FFF785FA4FF4E13002900020ADF8C7
:101060000C00ADF80E00ADF81000ADF814000C2027
:10107000ADF8120002A9084800F06CF8012240F215
:101080002551054800F041F801210348FFF7A0FF72
:1010900007B000BD000C01400038014002460020AE
:1010A000B1F5007F00D100BF13880B400BB10120C8
:1010B00000E00020704770B50246002400230025A0
:1010C000002040F66A16B14200D100BFC1F34215BC
:1010D00001F01F03012606FA03F3012D02D19689C0
:1010E000334006E0022D02D1168A334001E0968A91
:1010F00033400C12012606FA04F41688344013B16A
:101100000CB1012000E0002070BDF0B503460024C2
:1011100000260025002040F66A17B94200D100BF22
:101120001846C1F3421401F01F06012707FA06F51D
:10113000012C01D10C3004E0022C01D1103000E070
:1011400014301AB107682F43076002E00768AF4305
:101150000760F0BD2DE9F04786B005460E46002435
:10116000A24600BFA1460027B08900B100BF2F46AC
:101170002C8A4CF6FF700440F08804432C82AC8922
:101180004EF6F3100440B088318908437189084352
:101190000443AC81AC8A4FF6FF400440B08904435D
:1011A000AC8201A8FFF77CFA1F48874202D1DDF824
:1011B00010A001E0DDF80CA0A88900F4004040B1C7
:1011C0000AEBCA0000EB0A1031684900B0FBF1F8E5
:1011D00007E00AEBCA0000EB0A1031688900B0FB97
:1011E000F1F86420B8FBF0F004012009642101FB50
:1011F0001089A88900F4004040B1322000EBC900FA
:10120000B0FBF1F000F00700044308E0322000EBEF
:1012100009106421B0FBF1F000F00F0004432C81B1
:1012200006B0BDE8F087000000380140014688881C
:10123000C0F308007047C1F308028280704700BF06
:10124000FEE770B506460C46002500BF615D3046DE
:1012500000F054F86D1C605D0028F7D100BF4021FC
:101260003046FFF71BFF0028F9D070BD8178C278A7
:1012700001EB022109B21E4A11808179C27901EB8A
:10128000022109B21B4A11801949B1F90010B1F5C8
:10129000FA6F04DB4FF4FA61154A118009E0144932
:1012A000B1F90010B1F57A7F03DC4FF47A71104A7E
:1012B00011801049B1F90010B1F5FA6F04DB4FF459
:1012C000FA610C4A118009E00A49B1F90010B1F540
:1012D0007A7F03DC4FF47A71064A1180017A19B1E2
:1012E0000121054A117002E00021034A1170704784
:1012F00000000020020000200400002070B5044619
:101300000D4629462046FFF796FF00BF8021204664
:10131000FFF7C4FE0028F9D070BD10B5FFF79AF9A9
:101320000120FFF759FA00BF2120FFF723FA002818
:10133000FAD00020FFF744FA4FF48060FFF752FA2A
:101340000020FFF75BFA4FF420110020FFF768FA46
:101350000120FFF75FFA00BF3920FFF70BFA0028E2
:10136000FAD00220FFF76AFA00BFFFF721FA082837
:10137000FBD110BD1CB51DA103C9CDE90001FFF7CC
:10138000CCFFFFF7D5F8FFF741FBFFF72DFE19481B
:10139000FFF786F944F62060FFF796F80020FFF784
:1013A000AFF822E014480078012809D10020124942
:1013B00008701248FFF75AFF69461148FFF741FFCE
:1013C00003211048B0F90000FFF786F804210E4809
:1013D000B0F90000FFF780F80C480078012802D12E
:1013E000FFF78AFD01E0FFF77DFDDBE76973206F02
:1013F0006B0D0A00340000201B0000204800002074
:1014000000380140000000200200002004000020FD
:1014100030140008000000203400000028010008FB
:1014200064140008340000203C0700004401000858
:10143000DC05DC05000000000000000000000000EA
:10144000000000000000000000000000000000009C
:10145000000000000102030401020304060708095A
:041460000204060874
:04000005080000ED02
:00000001FF
